:100000000C9434000C94A0000C9494000C945100B7
:100010000C9451000C9451000C9451000C9451001C
:100020000C9451000C9451000C9451000C9451000C
:100030000C9451000C9451000C9453000C945100FA
:100040000C9451000C9451000C9451000C945100EC
:100050000C9451000C9475000C9451000C945100B8
:100060000C9451000C94510011241FBECFEFD8E026
:10007000DEBFCDBF11E0A0E0B1E0EEEFF6E002C0E0
:1000800005900D92AC30B107D9F721E0ACE0B1E0BA
:1000900001C01D92AF30B207E1F70E94AF000C948F
:1000A0007D030C9400001F920F920FB60F92112443
:1000B0005F936F937F938F939F93AF93BF93809141
:1000C0000E0190E0019663E070E00E946903809366
:1000D0000E01BF91AF919F918F917F916F915F9131
:1000E0000F900FBE0F901F9018951F920F920FB692
:1000F0000F9211248F939F93EF93FF938091780039
:100100009091790090930D0180930C01EAE7F0E063
:10011000808180648083FF91EF919F918F910F90F8
:100120000FBE0F901F9018951F920F920FB60F924F
:100130001124109200010F900FBE0F901F90189580
:100140001F920F920FB60F9211248F9381E080932C
:1001500000018F910F900FBE0F901F901895CF93B5
:10016000DF9300D01F92CDB7DEB778948AB1837F3A
:100170008AB98BB18C608BB98DB383608DBB809154
:1001800069008A60809369008FEF84B98AB1806EBC
:100190008AB98CE787BD84B5826084BD80916E008A
:1001A000826080936E0085B5836085BD80917C0000
:1001B000806480937C0080917C0080937C0080919F
:1001C0007A00886080937A0080917A0083608093BF
:1001D0007A0080917A00806C80937A000AE010E0C7
:1001E00084E6E82EF12CCC24C394D12C60910C0130
:1001F00070910D0190E080E00E945A022AEA31EFEE
:1002000042E050E40E94B901209100012223B9F19B
:100210000E942B029B01CB01B8010E9455038983E8
:10022000CB01B8010E9455038A83C901B7010E941E
:100230005503CB01B8010E9455038B83E0910E0159
:1002400041E050E04C0F5D1F4E0F511DFA01E0815F
:10025000F0E0EF5FFE4F808185B98BB1806E8BB986
:100260002BB190910E019B5FA60102C0440F551F58
:100270009A95E2F7CA01809582238BB9B7CF26E61B
:1002800036E646EE5FE30E94E80220E030E040E020
:1002900052E40E944D01BCCF5058BB27AA270E94B0
:1002A00064010C94AE020E94A00238F00E94A702E2
:1002B00020F039F49F3F19F426F40C949D020EF4BB
:1002C000E095E7FB0C949702E92F0E94BF0258F3D8
:1002D000BA17620773078407950720F079F4A6F52B
:1002E0000C94E1020EF4E0950B2EBA2FA02D0B0119
:1002F000B90190010C01CA01A0011124FF27591B6B
:1003000099F0593F50F4503E68F11A16F040A22F70
:10031000232F342F4427585FF3CF469537952795E1
:10032000A795F0405395C9F77EF41F16BA0B620BE0
:10033000730B840BBAF09150A1F0FF0FBB1F661F27
:10034000771F881FC2F70EC0BA0F621F731F841F6A
:1003500048F4879577956795B795F7959E3F08F090
:10036000B0CF9395880F08F09927EE0F9795879552
:1003700008950E94CD010C94AE020E94A70258F08D
:100380000E94A00240F029F45F3F29F00C949702EC
:1003900051110C94E2020C949D020E94BF0268F37A
:1003A0009923B1F3552391F3951B550BBB27AA272E
:1003B00062177307840738F09F5F5F4F220F331F68
:1003C000441FAA1FA9F335D00E2E3AF0E0E832D030
:1003D00091505040E695001CCAF72BD0FE2F29D033
:1003E000660F771F881FBB1F261737074807AB0705
:1003F000B0E809F0BB0B802DBF01FF2793585F4F7A
:100400003AF09E3F510578F00C9497020C94E2026A
:100410005F3FE4F3983ED4F3869577956795B7955B
:10042000F7959F5FC9F7880F911D9695879597F966
:100430000895E1E0660F771F881FBB1F62177307DF
:100440008407BA0720F0621B730B840BBA0BEE1FF4
:1004500088F7E09508950E94C70288F09F5798F0AA
:10046000B92F9927B751B0F0E1F0660F771F881FB9
:10047000991F1AF0BA95C9F714C0B13091F00E94D3
:10048000E102B1E008950C94E102672F782F8827EC
:10049000B85F39F0B93FCCF3869577956795B395FA
:1004A000D9F73EF490958095709561957F4F8F4F69
:1004B0009F4F0895E89409C097FB3EF4909580956E
:1004C000709561957F4F8F4F9F4F9923A9F0F92F1A
:1004D00096E9BB279395F695879577956795B79598
:1004E000F111F8CFFAF4BB0F11F460FF1BC06F5F7E
:1004F0007F4F8F4F9F4F16C0882311F096E911C090
:10050000772321F09EE8872F762F05C0662371F0B0
:1005100096E8862F70E060E02AF09A95660F771FC4
:10052000881FDAF7880F9695879597F9089597F9B8
:100530009F6780E870E060E008959FEF80EC089589
:1005400000240A94161617061806090608950024B2
:100550000A9412161306140605060895092E03942C
:10056000000C11F4882352F0BB0F40F4BF2B11F4A0
:1005700060FF04C06F5F7F4F8F4F9F4F089557FDFF
:100580009058440F551F59F05F3F71F04795880F01
:1005900097FB991F61F09F3F79F087950895121698
:1005A00013061406551FF2CF4695F1DF08C0161644
:1005B00017061806991FF1CF8695710561050894F5
:1005C0000895E894BB2766277727CB0197F908950C
:1005D0000E94FB020C94AE020E94A00238F00E941E
:1005E000A70220F0952311F00C9497020C949D0221
:1005F00011240C94E2020E94BF0270F3959FC1F394
:10060000950F50E0551F629FF001729FBB27F00DC0
:10061000B11D639FAA27F00DB11DAA1F649F662715
:10062000B00DA11D661F829F2227B00DA11D621F64
:10063000739FB00DA11D621F839FA00D611D221F1E
:10064000749F3327A00D611D231F849F600D211D02
:10065000822F762F6A2F11249F5750409AF0F1F085
:1006600088234AF0EE0FFF1FBB1F661F771F881FEE
:1006700091505040A9F79E3F510580F00C9497028D
:100680000C94E2025F3FE4F3983ED4F386957795AD
:100690006795B795F795E7959F5FC1F7FE2B880F94
:1006A000911D9695879597F90895AA1BBB1B51E15B
:1006B00007C0AA1FBB1FA617B70710F0A61BB70BD2
:1006C000881F991F5A95A9F780959095BC01CD0177
:1006D000089597FB072E16F4009407D077FD09D0F4
:1006E0000E94550307FC05D03EF4909581959F4FDD
:0E06F0000895709561957F4F0895F894FFCF9F
:0C06FE00013F065B4F666D7D077F6F00BB
:00000001FF
